{
  "_format": "hh-sol-artifact-1",
  "contractName": "test",
  "sourceName": "contracts/test.sol",
  "abi": [
    {
      "inputs": [],
      "name": "getData",
      "outputs": [
        {
          "internalType": "uint256",
          "name": "",
          "type": "uint256"
        }
      ],
      "stateMutability": "view",
      "type": "function"
    }
  ],
  "bytecode": "0x6080604052348015600f57600080fd5b50607780601d6000396000f3fe6080604052348015600f57600080fd5b506004361060285760003560e01c80633bc5de3014602d575b600080fd5b600160405190815260200160405180910390f3fea26469706673582212209cde55d24713ed44e42bf7e86f9762124d92d704e9f82c4595793cf3cd91a3f464736f6c634300080c0033",
  "linkReferences": {},
  "deployedLinkReferences": {}
}